S0170000446174614C6F6767657254657374732E7372656320
S1130000A8200020190100001501000015010000BE
S113001000000000000000000000000000000000DC
S113002000000000000000000000000015010000B6
S11300300000000000000000150100001501000090
S11300401501000015010000150100001501000054
S1130050F502000015010000150100001501000063
S11300601501000095020000A5020000B502000081
S1130070C5020000D5020000E502000015010000E1
S11300801501000015010000150100001501000014
S11300901501000000000000000000001501000030
S11300A015010000150100001501000015010000F4
S11300B00000000010B5064C2378002B07D1054B37
S11300C0002B02D0044800E000BF0123237010BDC0
S11300D00C000020000000004C0C0000084B10B580
S11300E0002B03D00749084800E000BF0748036815
S11300F0002B00D110BD064B002BFBD09847F9E72D
S113010000000000100000204C0C00004C0C00000B
S113011000000000FEE7C04670B52E4B2E4A9A42FE
S113012003D02E4B2B4A9A4204D32D4B2D4A9A428C
S113013010D31EE02C4A294B03339B1A9B0801332E
S11301409B000022234824498C58845004329A424C
S1130150FAD1EAE7254A224B03339B1A9B08013361
S11301609B0000221F4800211418216004329A4287
S1130170FAD11F4AFF211F4B8B439360FD39902313
S11301805B001D4AD1501D48C3780324A3430222B7
S11301901343C370C3780C26B34308210B43C370C5
S11301A0174B987B3025A8430500202028439873DB
S11301B0987BB04301439973997BA1430A439A7393
S11301C0104A516880230B4353600F4B98470F4BE1
S11301D09847FEE7000000204C0C00000C000020B3
S11301E0A40000200C0000200400002010000020C7
S11301F000ED00E0000000000070004100500041EC
S11302000048004100400041990B0000390A0000F9
S1130210044A117802230B43137053785BB2002B0A
S1130220FBDB70470018004000B583B0124A9169A7
S113023040230B43936101A900230B7005200F4B4E
S1130240984705200E4B98470E4A117801230B431B
S1130250137053785BB2002BFBDB0B4B190040315E
S1130260002204C39942FCD11022084B1A60084BA7
S1130270984703B000BDC04600040040A508000034
S113028019080000001800406000002000E100E0B0
S11302901102000010B5024B1B680020984710BDE6
S11302A02800002010B5024B5B680120984710BD60
S11302B02800002010B5024B9B680220984710BD0F
S11302C02800002010B5024BDB680320984710BDBE
S11302D02800002010B5024B1B690420984710BD6C
S11302E02800002010B5024B5B690520984710BD1B
S11302F02800002070B50022154B1A7000231F251A
S1130300144E134C1F2B19D90FE0002100E01249A1
S11303100A619B009B59002B00D098472378013336
S1130320DBB223700F2BEDD911E029001940012213
S11303308A40002109691142E7D1EFE729001940F9
S113034001228A40044909691142E0D1E6E770BDFF
S1130350A0000020600000200018004070B50020BC
S1130360084B98470500084CFA218900A047074B21
S1130370186007492800A047064B18600522064B61
S11303801A6070BD8D070000810A0000040000207F
S113039040420F000000002010E000E030B5084BA0
S11303A01C68084A00258021490206E0002C04D07C
S11303B05460956013680B42FCD00138F6D230BD0E
S11303C00400002010E000E000B583B001AB8022FF
S11303D01A700A785A704A789A708A78DA70190012
S11303E0014B984703B000BD9D0900007047C0460B
S11303F00C4B1B68002B10D1EFF31083002B09D199
S113040072B6BFF35F8F0022074B1A700132074B9D
S11304101A7002E00022054B1A70024A1368013375
S113042013607047400000200800002044000020B2
S1130430084B1A68013A1A601B68002B09D1064B55
S11304401B78002B05D00122044B1A70BFF35F8F79
S113045062B67047400000204400002008000020DD
S113046010B5082803D880001B4B1B589F4600205A
S113047030E01A4B18692DE0194B1B6A9B059B0F42
S11304801848D84026E0154B586923E0134B1B68E5
S1130490022018401ED012491022CB681A42FCD008
S11304A00E4B1B685B0714D500200F4B98470B4B72
S11304B09B681B041B0C58430CE05023084AD35C74
S11304C000205B0706D5054BD86803E080200002B6
S11304D000E0064810BDC046E40B000048000020C0
S11304E00008004000127A00C1080000006CDC0221
S11304F070B50C4C236A017885784278012002405B
S113050092014026B343134302002A40D2017F30B4
S11305108343134303220A40120203490B4013434B
S1130520236270BD00080040FFFCFFFF082803D8C9
S11305308000254B1B589F46172044E0234A116A2C
S113054002230B43136200203DE0204A91690223F9
S11305500B439361002036E01C4A118A02230B43AB
S1130560138200202FE0194A918A02230B439382BD
S1130570002028E016490B68022213430B60134B3A
S11305809A8419000E32CB681A42FCD0104A916842
S11305900E4BD96252689A6200229A841900103272
S11305A0CB681A42FCD00A4B1B689BB2074A93845F
S11305B0002008E005494422885C022303438B544D
S11305C0002000E000207047080C000000080040F4
S11305D04800002030B585B0C222D2001A4B9A6080
S11305E01A4A53681E218B43536001236A461370D1
S11305F00024174DE0B26946A8470134252CF9D1EF
S113060003A800244470012585700470114B984799
S11306100620114B9847114B9847114B1C725C7282
S11306209C72DC7201956B465C7006236A461370FB
S113063014725472694600200A4B984700200A4BF2
S1130640984705B030BDC046000800400040004156
S1130650A5080000F10400002D0500006D0600004F
S1130660000400409106000049070000064A916911
S113067008230B4393610122044B1A7019000B7871
S11306801342FCD17047C04600040040000C0040F7
S113069070B5060005000C78240204434B78002B47
S11306A002D08023DB021C434B7A002B02D0802330
S11306B01B031C434868012818D9431E184210D153
S11306C0022806D90223002201325B009842FBD89B
S11306D000E0002212023243150080235B031C4316
S11306E004E00502354380239B021C430B7A002B54
S11306F002D080239B031C430F4A53785BB2002B28
S1130700FBDB0E4B98470E4B1E700B4A53785BB2C3
S1130710002BFBDB084B9D601A0053785BB2002B67
S1130720FBDB054A516880235B020B401C43546089
S1130730044B984770BDC046000C0040F103000014
S1130740080C00403104000010B504000B4A537833
S11307505BB2002BFBDB0A4B98470A4B1C70074A21
S113076053785BB2002BFBDB044A536880214902B7
S11307700B435360044B984710BDC046000C004027
S1130780F1030000040C00403104000070B50400C3
S11307901A4A53785BB2002BFBDB194B9847194B71
S11307A01C70164A53785BB2002BFBDB134E706847
S11307B0C004C00E144B98470500124B1C70766899
S11307C0F602F60F114B1C700C4A53785BB2002BE7
S11307D0FBDB0A4B9C682402240C0D4B9847002E2B
S11307E007D1012C07D9210028000A4B984705009E
S11307F001E00134E540280070BDC046000C004013
S1130800F1030000040C004061040000080C0040E7
S113081031040000810A000010B50400064B98471B
S1130820064B1C70064A51888023DB010B4353801E
S1130830044B984710BDC046F1030000020C004071
S1130840000C00403104000010B504000F4B984721
S11308500F4B1C700F4B5A881205100F59880E4A03
S11308600A405A8059880D4A0A405A801900802249
S1130870D2014B881342FCD106494C880202064B34
S1130880234013434B80064B984710BDF1030000EF
S1130890020C0040000C0040FFF0FFFFFFBFFFFF11
S11308A03104000010B50C7824020443024B98472D
S11308B0A4B2024B5C8010BD49080000000C00404B
S11308C010B50400064B9847064B1C70064B5C8819
S11308D02405240F054B98472000054B984710BD6D
S11308E0F1030000020C0040000C00403104000041
S11308F08D07000030B5D378002B1ED11378802BE0
S113090004D01B0680246402234300E000235478AF
S11309100225AC430AD19478002C03D18024A4028C
S1130920234302E0C024E402234341605478013CA1
S1130930012C12D8184C23400FE041600B041B0C0F
S1130940A024E405234383620B0CD0242406234310
S11309508362D378002B18D01CE00C04240CA0254F
S1130960ED052C431C4384620C0CD0252D062C432E
S11309701C438462D478002C0CD15B0305D5937896
S1130980012B01D1816100E041615378013B012BCE
S113099000D8816030BDC046FFFFFBFF10B50300E7
S11309A00A00C1090020002904D15809C0010549E1
S11309B08C4660441F210B401E399940024B9847D6
S11309C010BDC04600440041F50800007047C04611
S11309D010B5054B9847054B9847054B9847054B71
S11309E09847054B984710BDD5050000ED0300005E
S11309F0CD09000029020000CD09000030B583B004
S1130A000A4B98470A4B984701AC012363700022B4
S1130A10A270237021003620064DA84721003720FC
S1130A20A84721001B20A84703B030BDD10900000E
S1130A305D030000C903000070B50C4B98470C4BD4
S1130A401A0080328021C903516180210904516157
S1130A50802212055A61074E074D8024E403962034
S1130A60B0476C610548B047AC61F8E7FD09000088
S1130A70004400419D0300008044004152030000F3
S1130A80002243088B4274D303098B425FD3030AC9
S1130A908B4244D3030B8B4228D3030C8B420DD3DC
S1130AA0FF22090212BA030C8B4202D3121209026A
S1130AB065D0030B8B4219D300E0090AC30B8B42A8
S1130AC001D3CB03C01A5241830B8B4201D38B0356
S1130AD0C01A5241430B8B4201D34B03C01A5241FB
S1130AE0030B8B4201D30B03C01A5241C30A8B423E
S1130AF001D3CB02C01A5241830A8B4201D38B0229
S1130B00C01A5241430A8B4201D34B02C01A5241CC
S1130B10030A8B4201D30B02C01A5241CDD2C3093E
S1130B208B4201D3CB01C01A524183098B4201D3BA
S1130B308B01C01A524143098B4201D34B01C01AA5
S1130B40524103098B4201D30B01C01A5241C3081D
S1130B508B4201D3CB00C01A524183088B4201D38C
S1130B608B00C01A524143088B4201D34B00C01A78
S1130B705241411A00D20146524110467047FFE7E4
S1130B8001B5002000F006F802BDC0460029F7D0E8
S1130B9076E770477047C0460E4B70B500251E00BF
S1130BA00D4CE41AA410A54204D0AB00F3589847A6
S1130BB00135F8E700F03AF8084B00251E00084C10
S1130BC0E41AA410A54204D0AB00F35898470135A9
S1130BD0F8E770BD380C0000380C0000380C000039
S1130BE03C0C0000720400006E0400006E0400005F
S1130BF0CC040000CC04000086040000780400004B
S1130C008C040000BA0400005805000038050000F8
S1130C1038050000C40500004A0500006605000010
S1130C203C05000074050000B4050000F8B5C0469A
S1130C30F8BC08BC9E467047DD000000F8B5C0460D
S10F0C40F8BC08BC9E467047B5000000DC
S10F0C4C08000000401F00000100000030
S9030119E2
